{
  "_format": "hh-sol-artifact-1",
  "contractName": "Aeterna",
  "sourceName": "contracts/Aeterna.sol",
  "abi": [
    {
      "inputs": [
        {
          "internalType": "address",
          "name": "_owner",
          "type": "address"
        },
        {
          "internalType": "address",
          "name": "_beneficiary",
          "type": "address"
        },
        {
          "internalType": "uint256",
          "name": "_heartbeatInterval",
          "type": "uint256"
        },
        {
          "internalType": "uint256",
          "name": "_gracePeriod",
          "type": "uint256"
        }
      ],
      "stateMutability": "nonpayable",
      "type": "constructor"
    },
    {
      "inputs": [],
      "name": "ReentrancyGuardReentrantCall",
      "type": "error"
    },
    {
      "anonymous": false,
      "inputs": [
        {
          "indexed": true,
          "internalType": "address",
          "name": "token",
          "type": "address"
        },
        {
          "indexed": false,
          "internalType": "uint256",
          "name": "amount",
          "type": "uint256"
        }
      ],
      "name": "Deposited",
      "type": "event"
    },
    {
      "anonymous": false,
      "inputs": [
        {
          "indexed": true,
          "internalType": "address",
          "name": "executor",
          "type": "address"
        },
        {
          "indexed": true,
          "internalType": "address",
          "name": "beneficiary",
          "type": "address"
        },
        {
          "indexed": false,
          "internalType": "address",
          "name": "token",
          "type": "address"
        },
        {
          "indexed": false,
          "internalType": "uint256",
          "name": "totalAmount",
          "type": "uint256"
        }
      ],
      "name": "InheritanceExecuted",
      "type": "event"
    },
    {
      "anonymous": false,
      "inputs": [
        {
          "indexed": true,
          "internalType": "address",
          "name": "previousOwner",
          "type": "address"
        },
        {
          "indexed": true,
          "internalType": "address",
          "name": "newOwner",
          "type": "address"
        }
      ],
      "name": "OwnershipTransferred",
      "type": "event"
    },
    {
      "anonymous": false,
      "inputs": [
        {
          "indexed": false,
          "internalType": "uint256",
          "name": "timestamp",
          "type": "uint256"
        }
      ],
      "name": "Pinged",
      "type": "event"
    },
    {
      "anonymous": false,
      "inputs": [
        {
          "indexed": true,
          "internalType": "address",
          "name": "token",
          "type": "address"
        },
        {
          "indexed": false,
          "internalType": "uint256",
          "name": "amount",
          "type": "uint256"
        }
      ],
      "name": "Withdrawn",
      "type": "event"
    },
    {
      "inputs": [],
      "name": "AAVE_POOL",
      "outputs": [
        {
          "internalType": "address",
          "name": "",
          "type": "address"
        }
      ],
      "stateMutability": "view",
      "type": "function"
    },
    {
      "inputs": [],
      "name": "beneficiary",
      "outputs": [
        {
          "internalType": "address",
          "name": "",
          "type": "address"
        }
      ],
      "stateMutability": "view",
      "type": "function"
    },
    {
      "inputs": [
        {
          "internalType": "address",
          "name": "_tokenAddress",
          "type": "address"
        },
        {
          "internalType": "uint256",
          "name": "_amount",
          "type": "uint256"
        }
      ],
      "name": "depositToAave",
      "outputs": [],
      "stateMutability": "nonpayable",
      "type": "function"
    },
    {
      "inputs": [
        {
          "internalType": "address",
          "name": "_tokenAddress",
          "type": "address"
        }
      ],
      "name": "executeInheritance",
      "outputs": [],
      "stateMutability": "nonpayable",
      "type": "function"
    },
    {
      "inputs": [],
      "name": "getStatus",
      "outputs": [
        {
          "internalType": "string",
          "name": "",
          "type": "string"
        }
      ],
      "stateMutability": "view",
      "type": "function"
    },
    {
      "inputs": [],
      "name": "gracePeriod",
      "outputs": [
        {
          "internalType": "uint256",
          "name": "",
          "type": "uint256"
        }
      ],
      "stateMutability": "view",
      "type": "function"
    },
    {
      "inputs": [],
      "name": "heartbeatInterval",
      "outputs": [
        {
          "internalType": "uint256",
          "name": "",
          "type": "uint256"
        }
      ],
      "stateMutability": "view",
      "type": "function"
    },
    {
      "inputs": [],
      "name": "lastPingTime",
      "outputs": [
        {
          "internalType": "uint256",
          "name": "",
          "type": "uint256"
        }
      ],
      "stateMutability": "view",
      "type": "function"
    },
    {
      "inputs": [],
      "name": "owner",
      "outputs": [
        {
          "internalType": "address",
          "name": "",
          "type": "address"
        }
      ],
      "stateMutability": "view",
      "type": "function"
    },
    {
      "inputs": [],
      "name": "ping",
      "outputs": [],
      "stateMutability": "nonpayable",
      "type": "function"
    },
    {
      "inputs": [
        {
          "internalType": "address",
          "name": "_beneficiary",
          "type": "address"
        },
        {
          "internalType": "uint256",
          "name": "_interval",
          "type": "uint256"
        },
        {
          "internalType": "uint256",
          "name": "_grace",
          "type": "uint256"
        }
      ],
      "name": "updateSettings",
      "outputs": [],
      "stateMutability": "nonpayable",
      "type": "function"
    },
    {
      "inputs": [
        {
          "internalType": "address",
          "name": "_tokenAddress",
          "type": "address"
        },
        {
          "internalType": "uint256",
          "name": "_amount",
          "type": "uint256"
        }
      ],
      "name": "withdrawFromAave",
      "outputs": [],
      "stateMutability": "nonpayable",
      "type": "function"
    }
  ],
  "bytecode": "0x60806040523480156200001157600080fd5b5060405162001d5038038062001d5083398181016040528101906200003791906200022d565b6001620000596200004d6200015360201b60201c565b6200017e60201b60201c565b60000181905550600082118015620000715750600081115b620000b3576040517f08c379a0000000000000000000000000000000000000000000000000000000008152600401620000aa9062000300565b60405180910390fd5b836000806101000a81548173ffffffffffffffffffffffffffffffffffffffff021916908373ffffffffffffffffffffffffffffffffffffffff16021790555082600160006101000a81548173ffffffffffffffffffffffffffffffffffffffff021916908373ffffffffffffffffffffffffffffffffffffffff1602179055508160028190555080600381905550426004819055505050505062000322565b60007f9b779b17422d0df92223018b32b4d1fa46e071723d6817e2486d003becc55f0060001b905090565b6000819050919050565b600080fd5b600073ffffffffffffffffffffffffffffffffffffffff82169050919050565b6000620001ba826200018d565b9050919050565b620001cc81620001ad565b8114620001d857600080fd5b50565b600081519050620001ec81620001c1565b92915050565b6000819050919050565b6200020781620001f2565b81146200021357600080fd5b50565b6000815190506200022781620001fc565b92915050565b600080600080608085870312156200024a576200024962000188565b5b60006200025a87828801620001db565b94505060206200026d87828801620001db565b9350506040620002808782880162000216565b9250506060620002938782880162000216565b91505092959194509250565b600082825260208201905092915050565b7f41657465726e613a2054696d65206c696d697473206d757374206265203e2030600082015250565b6000620002e86020836200029f565b9150620002f582620002b0565b602082019050919050565b600060208201905081810360008301526200031b81620002d9565b9050919050565b611a1e80620003326000396000f3fe608060405234801561001057600080fd5b50600436106100b45760003560e01c8063561a4fac11610071578063561a4fac146101695780635c36b1861461018757806386198cd5146101915780638da5cb5b146101ad578063a06db7dc146101cb578063eeb149e7146101e9576100b4565b806308a01675146100b95780631b220281146100d757806335d62d4d146100f357806338af3eed14610111578063487ede041461012f5780634e69d5601461014b575b600080fd5b6100c1610205565b6040516100ce9190611151565b60405180910390f35b6100f160048036038101906100ec91906111d3565b61021d565b005b6100fb6103a8565b6040516101089190611235565b60405180910390f35b6101196103ae565b6040516101269190611151565b60405180910390f35b61014960048036038101906101449190611250565b6103d4565b005b610153610604565b6040516101609190611320565b60405180910390f35b6101716106f5565b60405161017e9190611235565b60405180910390f35b61018f6106fb565b005b6101ab60048036038101906101a69190611342565b6107f2565b005b6101b5610cba565b6040516101c29190611151565b60405180910390f35b6101d3610cde565b6040516101e09190611235565b60405180910390f35b61020360048036038101906101fe9190611250565b610ce4565b005b738bab6d1b75f19e9ed9fce8b9bd338844ff79ae2781565b60008054906101000a900473ffffffffffffffffffffffffffffffffffffffff1673ffffffffffffffffffffffffffffffffffffffff163373ffffffffffffffffffffffffffffffffffffffff16146102ab576040517f08c379a00000000000000000000000000000000000000000000000000000000081526004016102a2906113bb565b60405180910390fd5b6002546004546102bb919061140a565b4211156102fd576040517f08c379a00000000000000000000000000000000000000000000000000000000081526004016102f4906114b0565b60405180910390fd5b60008211801561030d5750600081115b61034c576040517f08c379a00000000000000000000000000000000000000000000000000000000081526004016103439061151c565b60405180910390fd5b610354610ffc565b82600160006101000a81548173ffffffffffffffffffffffffffffffffffffffff021916908373ffffffffffffffffffffffffffffffffffffffff1602179055508160028190555080600381905550505050565b60045481565b600160009054906101000a900473ffffffffffffffffffffffffffffffffffffffff1681565b60008054906101000a900473ffffffffffffffffffffffffffffffffffffffff1673ffffffffffffffffffffffffffffffffffffffff163373ffffffffffffffffffffffffffffffffffffffff1614610462576040517f08c379a0000000000000000000000000000000000000000000000000000000008152600401610459906113bb565b60405180910390fd5b600354600254600454610475919061140a565b61047f919061140a565b4211156104c1576040517f08c379a00000000000000000000000000000000000000000000000000000000081526004016104b890611588565b60405180910390fd5b6104c9610ffc565b60007fffffffffffffffffffffffffffffffffffffffffffffffffffffffffffffffff82146104f8578161051a565b7fffffffffffffffffffffffffffffffffffffffffffffffffffffffffffffffff5b9050738bab6d1b75f19e9ed9fce8b9bd338844ff79ae2773ffffffffffffffffffffffffffffffffffffffff166369328dec8483336040518463ffffffff1660e01b815260040161056d939291906115a8565b6020604051808303816000875af115801561058c573d6000803e3d6000fd5b505050506040513d601f19601f820116820180604052508101906105b091906115f4565b508273ffffffffffffffffffffffffffffffffffffffff167f7084f5476618d8e60b11ef0d7d3f06914655adb8793e28ff7f018d4c76d505d5836040516105f79190611235565b60405180910390a2505050565b6060600254600454610616919061140a565b4211610659576040518060400160405280600681526020017f416374697665000000000000000000000000000000000000000000000000000081525090506106f2565b60035460025460045461066c919061140a565b610676919061140a565b42116106b9576040518060400160405280601581526020017f5761726e696e673a20477261636520506572696f64000000000000000000000081525090506106f2565b6040518060400160405280601881526020017f44656365617365643a20526561647920746f20436c61696d000000000000000081525090505b90565b60025481565b60008054906101000a900473ffffffffffffffffffffffffffffffffffffffff1673ffffffffffffffffffffffffffffffffffffffff163373ffffffffffffffffffffffffffffffffffffffff1614610789576040517f08c379a0000000000000000000000000000000000000000000000000000000008152600401610780906113bb565b60405180910390fd5b60035460025460045461079c919061140a565b6107a6919061140a565b4211156107e8576040517f08c379a00000000000000000000000000000000000000000000000000000000081526004016107df90611588565b60405180910390fd5b6107f0610ffc565b565b6107fa61103e565b60035460025460045461080d919061140a565b610817919061140a565b4211610858576040517f08c379a000000000000000000000000000000000000000000000000000000000815260040161084f90611693565b60405180910390fd5b600073ffffffffffffffffffffffffffffffffffffffff16600160009054906101000a900473ffffffffffffffffffffffffffffffffffffffff1673ffffffffffffffffffffffffffffffffffffffff16036108e9576040517f08c379a00000000000000000000000000000000000000000000000000000000081526004016108e0906116ff565b60405180910390fd5b6000738bab6d1b75f19e9ed9fce8b9bd338844ff79ae2773ffffffffffffffffffffffffffffffffffffffff166369328dec837fffffffffffffffffffffffffffffffffffffffffffffffffffffffffffffffff306040518463ffffffff1660e01b815260040161095c939291906115a8565b6020604051808303816000875af115801561097b573d6000803e3d6000fd5b505050506040513d601f19601f8201168201806040525081019061099f91906115f4565b9050600081116109e4576040517f08c379a00000000000000000000000000000000000000000000000000000000081526004016109db9061176b565b60405180910390fd5b60006064826109f391906117ba565b905060008183610a0391906117eb565b90508373ffffffffffffffffffffffffffffffffffffffff1663a9059cbb33846040518363ffffffff1660e01b8152600401610a4092919061181f565b6020604051808303816000875af1158015610a5f573d6000803e3d6000fd5b505050506040513d601f19601f82011682018060405250810190610a839190611880565b508373ffffffffffffffffffffffffffffffffffffffff1663a9059cbb600160009054906101000a900473ffffffffffffffffffffffffffffffffffffffff16836040518363ffffffff1660e01b8152600401610ae192919061181f565b6020604051808303816000875af1158015610b00573d6000803e3d6000fd5b505050506040513d601f19601f82011682018060405250810190610b249190611880565b50600160009054906101000a900473ffffffffffffffffffffffffffffffffffffffff1673ffffffffffffffffffffffffffffffffffffffff1660008054906101000a900473ffffffffffffffffffffffffffffffffffffffff1673ffffffffffffffffffffffffffffffffffffffff167f8be0079c531659141344cd1fd0a4f28419497f9722a3daafe3b4186f6b6457e060405160405180910390a3600160009054906101000a900473ffffffffffffffffffffffffffffffffffffffff166000806101000a81548173ffffffffffffffffffffffffffffffffffffffff021916908373ffffffffffffffffffffffffffffffffffffffff160217905550600160009054906101000a900473ffffffffffffffffffffffffffffffffffffffff1673ffffffffffffffffffffffffffffffffffffffff163373ffffffffffffffffffffffffffffffffffffffff167f787b8d3b91f71982210ce70ce99256e7fae2a93b3c316b40a53b549ffcb93c908686604051610ca492919061181f565b60405180910390a3505050610cb7611061565b50565b60008054906101000a900473ffffffffffffffffffffffffffffffffffffffff1681565b60035481565b60008054906101000a900473ffffffffffffffffffffffffffffffffffffffff1673ffffffffffffffffffffffffffffffffffffffff163373ffffffffffffffffffffffffffffffffffffffff1614610d72576040517f08c379a0000000000000000000000000000000000000000000000000000000008152600401610d69906113bb565b60405180910390fd5b600254600454610d82919061140a565b421115610dc4576040517f08c379a0000000000000000000000000000000000000000000000000000000008152600401610dbb906114b0565b60405180910390fd5b610dcc610ffc565b60008290508073ffffffffffffffffffffffffffffffffffffffff166323b872dd3330856040518463ffffffff1660e01b8152600401610e0e939291906118ad565b6020604051808303816000875af1158015610e2d573d6000803e3d6000fd5b505050506040513d601f19601f82011682018060405250810190610e519190611880565b610e90576040517f08c379a0000000000000000000000000000000000000000000000000000000008152600401610e8790611930565b60405180910390fd5b8073ffffffffffffffffffffffffffffffffffffffff1663095ea7b3738bab6d1b75f19e9ed9fce8b9bd338844ff79ae27846040518363ffffffff1660e01b8152600401610edf92919061181f565b6020604051808303816000875af1158015610efe573d6000803e3d6000fd5b505050506040513d601f19601f82011682018060405250810190610f229190611880565b50738bab6d1b75f19e9ed9fce8b9bd338844ff79ae2773ffffffffffffffffffffffffffffffffffffffff1663617ba03784843060006040518563ffffffff1660e01b8152600401610f7794939291906119a3565b600060405180830381600087803b158015610f9157600080fd5b505af1158015610fa5573d6000803e3d6000fd5b505050508273ffffffffffffffffffffffffffffffffffffffff167f2da466a7b24304f47e87fa2e1e5a81b9831ce54fec19055ce277ca2f39ba42c483604051610fef9190611235565b60405180910390a2505050565b426004819055507f1c19e8a9b90b5653e27f42eb6f5bcfe290a3f1a06ada6df32c8c0d54173337c56004546040516110349190611235565b60405180910390a1565b61104661107c565b60026110586110536110bd565b6110e8565b60000181905550565b600161107361106e6110bd565b6110e8565b60000181905550565b6110846110f2565b156110bb576040517f3ee5aeb500000000000000000000000000000000000000000000000000000000815260040160405180910390fd5b565b60007f9b779b17422d0df92223018b32b4d1fa46e071723d6817e2486d003becc55f0060001b905090565b6000819050919050565b600060026111066111016110bd565b6110e8565b6000015414905090565b600073ffffffffffffffffffffffffffffffffffffffff82169050919050565b600061113b82611110565b9050919050565b61114b81611130565b82525050565b60006020820190506111666000830184611142565b92915050565b600080fd5b61117a81611130565b811461118557600080fd5b50565b60008135905061119781611171565b92915050565b6000819050919050565b6111b08161119d565b81146111bb57600080fd5b50565b6000813590506111cd816111a7565b92915050565b6000806000606084860312156111ec576111eb61116c565b5b60006111fa86828701611188565b935050602061120b868287016111be565b925050604061121c868287016111be565b9150509250925092565b61122f8161119d565b82525050565b600060208201905061124a6000830184611226565b92915050565b600080604083850312156112675761126661116c565b5b600061127585828601611188565b9250506020611286858286016111be565b9150509250929050565b600081519050919050565b600082825260208201905092915050565b60005b838110156112ca5780820151818401526020810190506112af565b60008484015250505050565b6000601f19601f8301169050919050565b60006112f282611290565b6112fc818561129b565b935061130c8185602086016112ac565b611315816112d6565b840191505092915050565b6000602082019050818103600083015261133a81846112e7565b905092915050565b6000602082840312156113585761135761116c565b5b600061136684828501611188565b91505092915050565b7f41657465726e613a204e6f74206f776e65720000000000000000000000000000600082015250565b60006113a560128361129b565b91506113b08261136f565b602082019050919050565b600060208201905081810360008301526113d481611398565b9050919050565b7f4e487b7100000000000000000000000000000000000000000000000000000000600052601160045260246000fd5b60006114158261119d565b91506114208361119d565b9250828201905080821115611438576114376113db565b5b92915050565b7f41657465726e613a20436f6e7472616374206973206e6f7420696e204163746960008201527f7665207374617465000000000000000000000000000000000000000000000000602082015250565b600061149a60288361129b565b91506114a58261143e565b604082019050919050565b600060208201905081810360008301526114c98161148d565b9050919050565b7f41657465726e613a2054696d65206c696d697473206d757374206265203e2030600082015250565b600061150660208361129b565b9150611511826114d0565b602082019050919050565b60006020820190508181036000830152611535816114f9565b9050919050565b7f41657465726e613a204f776e6572206973204465636561736564000000000000600082015250565b6000611572601a8361129b565b915061157d8261153c565b602082019050919050565b600060208201905081810360008301526115a181611565565b9050919050565b60006060820190506115bd6000830186611142565b6115ca6020830185611226565b6115d76040830184611142565b949350505050565b6000815190506115ee816111a7565b92915050565b60006020828403121561160a5761160961116c565b5b6000611618848285016115df565b91505092915050565b7f41657465726e613a204f776e6572206973207374696c6c20616374697665206f60008201527f7220696e20677261636520706572696f64000000000000000000000000000000602082015250565b600061167d60318361129b565b915061168882611621565b604082019050919050565b600060208201905081810360008301526116ac81611670565b9050919050565b7f41657465726e613a2042656e6566696369617279206e6f742073657400000000600082015250565b60006116e9601c8361129b565b91506116f4826116b3565b602082019050919050565b60006020820190508181036000830152611718816116dc565b9050919050565b7f41657465726e613a204e6f2066756e647320746f207769746864726177000000600082015250565b6000611755601d8361129b565b91506117608261171f565b602082019050919050565b6000602082019050818103600083015261178481611748565b9050919050565b7f4e487b7100000000000000000000000000000000000000000000000000000000600052601260045260246000fd5b60006117c58261119d565b91506117d08361119d565b9250826117e0576117df61178b565b5b828204905092915050565b60006117f68261119d565b91506118018361119d565b9250828203905081811115611819576118186113db565b5b92915050565b60006040820190506118346000830185611142565b6118416020830184611226565b9392505050565b60008115159050919050565b61185d81611848565b811461186857600080fd5b50565b60008151905061187a81611854565b92915050565b6000602082840312156118965761189561116c565b5b60006118a48482850161186b565b91505092915050565b60006060820190506118c26000830186611142565b6118cf6020830185611142565b6118dc6040830184611226565b949350505050565b7f41657465726e613a205472616e73666572206661696c65640000000000000000600082015250565b600061191a60188361129b565b9150611925826118e4565b602082019050919050565b600060208201905081810360008301526119498161190d565b9050919050565b6000819050919050565b600061ffff82169050919050565b6000819050919050565b600061198d61198861198384611950565b611968565b61195a565b9050919050565b61199d81611972565b82525050565b60006080820190506119b86000830187611142565b6119c56020830186611226565b6119d26040830185611142565b6119df6060830184611994565b9594505050505056fea2646970667358221220fdc8d2615f47542a58891521c877e1a67fe547967145b4f2b5941ab0c646ea4764736f6c63430008140033",
  "linkReferences": {},
  "deployedLinkReferences": {}
}